{
  "_format": "hh-sol-artifact-1",
  "contractName": "TokenizedBallot",
  "sourceName": "contracts/week3-TokenizedBallot/TokenizedVotes/TokenizedBallot.sol",
  "abi": [
    {
      "inputs": [
        {
          "internalType": "bytes32[]",
          "name": "proposalNames",
          "type": "bytes32[]"
        },
        {
          "internalType": "address",
          "name": "_tokenContract",
          "type": "address"
        },
        {
          "internalType": "uint256",
          "name": "_targetBlockNumber",
          "type": "uint256"
        }
      ],
      "stateMutability": "nonpayable",
      "type": "constructor"
    },
    {
      "inputs": [],
      "name": "getProposalsCount",
      "outputs": [
        {
          "internalType": "uint256",
          "name": "",
          "type": "uint256"
        }
      ],
      "stateMutability": "view",
      "type": "function"
    },
    {
      "inputs": [
        {
          "internalType": "uint256",
          "name": "",
          "type": "uint256"
        }
      ],
      "name": "proposals",
      "outputs": [
        {
          "internalType": "bytes32",
          "name": "name",
          "type": "bytes32"
        },
        {
          "internalType": "uint256",
          "name": "voteCount",
          "type": "uint256"
        }
      ],
      "stateMutability": "view",
      "type": "function"
    },
    {
      "inputs": [],
      "name": "targetBlockNumber",
      "outputs": [
        {
          "internalType": "uint256",
          "name": "",
          "type": "uint256"
        }
      ],
      "stateMutability": "view",
      "type": "function"
    },
    {
      "inputs": [],
      "name": "tokenContract",
      "outputs": [
        {
          "internalType": "contract IVoteToken",
          "name": "",
          "type": "address"
        }
      ],
      "stateMutability": "view",
      "type": "function"
    },
    {
      "inputs": [
        {
          "internalType": "uint256",
          "name": "proposal",
          "type": "uint256"
        },
        {
          "internalType": "uint256",
          "name": "amount",
          "type": "uint256"
        }
      ],
      "name": "vote",
      "outputs": [],
      "stateMutability": "nonpayable",
      "type": "function"
    },
    {
      "inputs": [
        {
          "internalType": "address",
          "name": "account",
          "type": "address"
        }
      ],
      "name": "votingPower",
      "outputs": [
        {
          "internalType": "uint256",
          "name": "",
          "type": "uint256"
        }
      ],
      "stateMutability": "view",
      "type": "function"
    },
    {
      "inputs": [],
      "name": "winnerName",
      "outputs": [
        {
          "internalType": "bytes32",
          "name": "winnerName_",
          "type": "bytes32"
        }
      ],
      "stateMutability": "view",
      "type": "function"
    },
    {
      "inputs": [],
      "name": "winningProposal",
      "outputs": [
        {
          "internalType": "uint256",
          "name": "winningProposal_",
          "type": "uint256"
        }
      ],
      "stateMutability": "view",
      "type": "function"
    }
  ],
  "bytecode": "0x60806040523480156200001157600080fd5b5060405162000de738038062000de7833981810160405281019062000037919062000383565b816000806101000a81548173ffffffffffffffffffffffffffffffffffffffff021916908373ffffffffffffffffffffffffffffffffffffffff1602179055508060028190555060005b8351811015620001155760016040518060400160405280868481518110620000ae57620000ad620003fe565b5b60200260200101518152602001600081525090806001815401808255809150506001900390600052602060002090600202016000909190919091506000820151816000015560208201518160010155505080806200010c906200045c565b91505062000081565b50505050620004a9565b6000604051905090565b600080fd5b600080fd5b600080fd5b6000601f19601f8301169050919050565b7f4e487b7100000000000000000000000000000000000000000000000000000000600052604160045260246000fd5b620001838262000138565b810181811067ffffffffffffffff82111715620001a557620001a462000149565b5b80604052505050565b6000620001ba6200011f565b9050620001c8828262000178565b919050565b600067ffffffffffffffff821115620001eb57620001ea62000149565b5b602082029050602081019050919050565b600080fd5b6000819050919050565b620002168162000201565b81146200022257600080fd5b50565b60008151905062000236816200020b565b92915050565b6000620002536200024d84620001cd565b620001ae565b90508083825260208201905060208402830185811115620002795762000278620001fc565b5b835b81811015620002a6578062000291888262000225565b8452602084019350506020810190506200027b565b5050509392505050565b600082601f830112620002c857620002c762000133565b5b8151620002da8482602086016200023c565b91505092915050565b600073ffffffffffffffffffffffffffffffffffffffff82169050919050565b60006200031082620002e3565b9050919050565b620003228162000303565b81146200032e57600080fd5b50565b600081519050620003428162000317565b92915050565b6000819050919050565b6200035d8162000348565b81146200036957600080fd5b50565b6000815190506200037d8162000352565b92915050565b6000806000606084860312156200039f576200039e62000129565b5b600084015167ffffffffffffffff811115620003c057620003bf6200012e565b5b620003ce86828701620002b0565b9350506020620003e18682870162000331565b9250506040620003f4868287016200036c565b9150509250925092565b7f4e487b7100000000000000000000000000000000000000000000000000000000600052603260045260246000fd5b7f4e487b7100000000000000000000000000000000000000000000000000000000600052601160045260246000fd5b6000620004698262000348565b91507fffffffffffffffffffffffffffffffffffffffffffffffffffffffffffffffff82036200049e576200049d6200042d565b5b600182019050919050565b61092e80620004b96000396000f3fe608060405234801561001057600080fd5b50600436106100885760003560e01c806398e527d31161005b57806398e527d314610118578063b384abef14610136578063c07473f614610152578063e2ba53f01461018257610088565b8063013cf08b1461008d5780632a8cd29e146100be57806355a373d6146100dc578063609ff1bd146100fa575b600080fd5b6100a760048036038101906100a291906104d4565b6101a0565b6040516100b5929190610529565b60405180910390f35b6100c66101d4565b6040516100d39190610552565b60405180910390f35b6100e46101da565b6040516100f191906105ec565b60405180910390f35b6101026101fe565b60405161010f9190610552565b60405180910390f35b610120610286565b60405161012d9190610552565b60405180910390f35b610150600480360381019061014b9190610607565b610293565b005b61016c60048036038101906101679190610685565b610374565b6040516101799190610552565b60405180910390f35b61018a610465565b60405161019791906106b2565b60405180910390f35b600181815481106101b057600080fd5b90600052602060002090600202016000915090508060000154908060010154905082565b60025481565b60008054906101000a900473ffffffffffffffffffffffffffffffffffffffff1681565b6000806000905060005b60018054905081101561028157816001828154811061022a576102296106cd565b5b906000526020600020906002020160010154111561026e5760018181548110610256576102556106cd565b5b90600052602060002090600202016001015491508092505b80806102799061072b565b915050610208565b505090565b6000600180549050905090565b8061029d33610374565b10156102de576040517f08c379a00000000000000000000000000000000000000000000000000000000081526004016102d5906107f6565b60405180910390fd5b80600360003373ffffffffffffffffffffffffffffffffffffffff1673ffffffffffffffffffffffffffffffffffffffff168152602001908152602001600020600082825461032d9190610816565b925050819055508060018381548110610349576103486106cd565b5b906000526020600020906002020160010160008282546103699190610816565b925050819055505050565b6000600360008373ffffffffffffffffffffffffffffffffffffffff1673ffffffffffffffffffffffffffffffffffffffff1681526020019081526020016000205460008054906101000a900473ffffffffffffffffffffffffffffffffffffffff1673ffffffffffffffffffffffffffffffffffffffff16633a46b1a8846002546040518363ffffffff1660e01b8152600401610413929190610859565b602060405180830381865afa158015610430573d6000803e3d6000fd5b505050506040513d601f19601f820116820180604052508101906104549190610897565b61045e91906108c4565b9050919050565b600060016104716101fe565b81548110610482576104816106cd565b5b906000526020600020906002020160000154905090565b600080fd5b6000819050919050565b6104b18161049e565b81146104bc57600080fd5b50565b6000813590506104ce816104a8565b92915050565b6000602082840312156104ea576104e9610499565b5b60006104f8848285016104bf565b91505092915050565b6000819050919050565b61051481610501565b82525050565b6105238161049e565b82525050565b600060408201905061053e600083018561050b565b61054b602083018461051a565b9392505050565b6000602082019050610567600083018461051a565b92915050565b600073ffffffffffffffffffffffffffffffffffffffff82169050919050565b6000819050919050565b60006105b26105ad6105a88461056d565b61058d565b61056d565b9050919050565b60006105c482610597565b9050919050565b60006105d6826105b9565b9050919050565b6105e6816105cb565b82525050565b600060208201905061060160008301846105dd565b92915050565b6000806040838503121561061e5761061d610499565b5b600061062c858286016104bf565b925050602061063d858286016104bf565b9150509250929050565b60006106528261056d565b9050919050565b61066281610647565b811461066d57600080fd5b50565b60008135905061067f81610659565b92915050565b60006020828403121561069b5761069a610499565b5b60006106a984828501610670565b91505092915050565b60006020820190506106c7600083018461050b565b92915050565b7f4e487b7100000000000000000000000000000000000000000000000000000000600052603260045260246000fd5b7f4e487b7100000000000000000000000000000000000000000000000000000000600052601160045260246000fd5b60006107368261049e565b91507fffffffffffffffffffffffffffffffffffffffffffffffffffffffffffffffff8203610768576107676106fc565b5b600182019050919050565b600082825260208201905092915050565b7f546f6b656e697a656442616c6c6f743a20747279696e6720746f20766f74652060008201527f6d6f7265207468616e20616c6c6f776564000000000000000000000000000000602082015250565b60006107e0603183610773565b91506107eb82610784565b604082019050919050565b6000602082019050818103600083015261080f816107d3565b9050919050565b60006108218261049e565b915061082c8361049e565b9250828201905080821115610844576108436106fc565b5b92915050565b61085381610647565b82525050565b600060408201905061086e600083018561084a565b61087b602083018461051a565b9392505050565b600081519050610891816104a8565b92915050565b6000602082840312156108ad576108ac610499565b5b60006108bb84828501610882565b91505092915050565b60006108cf8261049e565b91506108da8361049e565b92508282039050818111156108f2576108f16106fc565b5b9291505056fea264697066735822122080bca10f51f1bd5b736ff2c3ccc67417fcedb071fefc80d67aa43e5d3420d5ba64736f6c63430008110033",
  "linkReferences": {},
  "deployedLinkReferences": {}
}